:030000000200FCFF
:0C00FC00787FE4F6D8FD75817E02014398
:1001F200696E69742073756363657373210A00CA3B
:10020200D5B5BDD6B8C1EEA3ACCFF2BAF3210A0080
:10021200CAD5B5BDD6B8C1EEA3ACCFF2D7F3210A89
:1002220000CAD5B5BDD6B8C1EEA3ACCFF2D3D221A8
:100232000A00CAD5B5BDD6B8C1EEA3ACCDA3D6B916
:03024200210A008E
:1003DF00C101C1000B2E7465737420636F646521B6
:1003EF00000321AAABAC0145000129000524000040
:0303FF00000000FB
:0F0245001204C11203257BFF7A0179F212044AD9
:10025400E4F56AF56B7421256BF8E6F5993099FDA0
:10026400C299056BE56BB403ECE4F56BE56B243BD9
:10027400F56CFF1203958F99EF426A3099FDC2998C
:10028400056BE56BC3940E40E3856A993099FDC212
:0102940099D0
:0202950080BD2A
:1004C100758920758DFD758BFD759850D28ED2ACD6
:0304D100D2AF2285
:0300230002001FB9
:01001F0032AE
:10036500755F51756902E5692439FF120395745E5D
:100375002569F8A6070569E569C3940A40E87B0085
:100385007A00795E1200007B007A0079390202E179
:100427001200268F7C8E7B8D7A8C797B04D3EB64CC
:10043700809480400D1BE57CFF8F993099FDC29910
:0204470080EB48
:010449002290
:0602E1008B1A8A1B891C28
:1002E7007599AA3099FDC299E4F51DF51EE51EAE74
:1002F7001D7802C333CE33CED8F9AB1AAA1BA91C7B
:10030700F5828E83120098120427051EE51E7002DF
:0D031700051DC39403E51D6480948040D053
:0103240022B6
:0404F300D290D29140
:0904F700000000000000000022DA
:0D0500001204F3C2901204F7C2910204F736
:1004D400C290D2911204F7D2901204F7C29102048E
:0104E400F720
:0C050D00C290D2911204F7C2910204F7D0
:080519001204F3C2910204F781
:1004AB001204F3A29092021204F7C2911204F730D5
:0504BB000202C322D380
:0104C0002219
:0E04E500C290D2911204F7D290C2910204F795
:100003007E08EF30E705120519800312050DEF2571
:0B001300E0FFDEEE1204AB500122C340
:01001E0022BF
:10046D007E08D290D291EF25E0FF1204F7A2909270
:10047D00021204F7C291300203430701DEE41205B4
:01048D000D61
:01048E00224B
:1003BA006932635F73656E645F6279746528536C32
:1003CA00617665416464726573732920737563632A
:0503DA006573732100B2
:06044A008B6F8A708971BE
:10045000E4FFAB6FAA70A9718F8275830012005DF3
:0C046000600AF5993099FDC2990F80E602
:01046C00226D
:100403008F6D8D6E1205007FD012000350097BFFA4
:100413007A0379BA12044AAF6D120003AF6E120069
:04042300030204D4F8
:020395008F6D6A
:100397001205007FD0120003AF6D12000312050093
:1003A7007FD112000312046D8F6E1204E51204D47C
:0203B700AF6E27
:0103B9002221
:10032500E4FFFEE4FDFC000DBD00010CBC03F7BDC0
:10033500E8F40FBF00010EBE03E9BFE8E6E4FD7F68
:100345006B1204037D077F191204037D067F1A12C1
:1003550004037D087F1B120403E4FD7F1C020403D4
:02048F008F7D5F
:100491001203958F7EE57D04FF120395AD07E57E7E
:0904A100FE7C00E42DFFEC3EFEA0
:0104AA00222F
:0A0188008B728A7389748C758D7672
:1001920074FFF577F578E4FDFCC3ED9576EC957583
:1001A2005049AB72AA73A9748D828C8312005D626E
:1001B20078E4FBFAE57830E015E577C313FEE578DD
:1001C20013FFEE64A0F577EF6401F578800BE57715
:1001D200C313F577E57813F5780BBB00010AEB64DE
:0F01E200084A70D00DBD00010C80AEAE77AF782B
:0101F10022EB
:040297008C0A8D0B35
:10029B00E4FCEFF510EEFF8F11E50BF512E50AFF0D
:1002AB008F13EBF514EAFF8F15E50FF516E50EFF2F
:1002BB008F177B007A0079107D08120188EFF518F3
:1002CB00EEF519E4FD74102DF8E6F5993099FDC2A1
:0502DB00990DBD0AF0C1
:0102E00022FB
:10002600EDD2E7CD33EC3392D524814006E4FFFED2
:10003600FDFC22FCE4CFCECDCC24E0501174FF8031
:10004600EDC3CC13CCCD13CDCE13CECF13CF0470CE
:07005600F030D5DE02008A44
:10010800020245E493A3F8E493A34003F68001F2C6
:1001180008DFF48029E493A3F85407240CC8C333F8
:10012800C4540F4420C8834004F456800146F6DFC7
:10013800E4800B01020408102040809003DFE47E75
:10014800019360BCA3FF543F30E509541FFEE493BC
:10015800A360010ECF54C025E060A840B8E493A383
:10016800FAE493A3F8E493A3C8C582C8CAC583CAAE
:10017800F0A3C8C582C8CAC583CADFE9DEE780BE66
:0104020000F9
:10005D00BB010CE58229F582E5833AF583E0225058
:10006D0006E92582F8E622BBFE06E92582F8E222A2
:0D007D00E58229F582E5833AF583E49322BC
:0E008A00C3E49FFFE49EFEE49DFDE49CFC2287
:10009800BB010DE58229F582E5833AF5830200D498
:1000A8005007E92582F80200C8BBFE07E92582F857
:1000B8000200E0E58229F582E5833AF5830200EC47
:0C00C800E6FC08E6FD08E6FE08E6FF2264
:0C00D400E0FCA3E0FDA3E0FEA3E0FF229F
:0C00E000E2FC08E2FD08E2FE08E2FF225C
:1000EC00E493FC740193FD740293FE740393FF225A
:00000001FF
